:020000041000EA
:10000000003000082B0100100D0000008D010010D1
:1000100000000000000000000000000000000000E0
:100020000000000000000000000000008901001036
:10003000000000000000000089010010890100108C
:100040008901001089010010890100108901001048
:100050008901001089010010890100108901001038
:100060008901001089010010890100108901001028
:100070008901001089010010890100108901001018
:100080008901001089010010890100108901001008
:1000900089010010890100108901001089010010F8
:1000A00089010010890100108901001089010010E8
:1000B00089010010890100108901001089010010D8
:1000C00010B5064C2378002B07D1054B002B02D02E
:1000D000044800E000BF0123237010BD6005000844
:1000E00000000000B0550010044B10B5002B03D0E9
:1000F0000349044800E000BF10BDC04600000000F6
:1001000064050008B05500100230800803D00130AB
:100110000238FCD1C046C0467047EFF3108072B67B
:10012000704780F3108870477047FFF7FDFF72B685
:100130000F4C104DAC4209DA21686268A368043B99
:1001400002DBC858D050FAE70C34F3E70A490B4AEF
:100150000020521A02DD043A8850FCDC08480949A4
:100160000860BFF34F8F02F049FD02F0DBFCFEE7B1
:10017000CCAB0110E4AB011060050008DC120008F4
:100180000000000808ED00E0FEE7FEE700B50420EF
:100190007146084202D0EFF3098002E0EFF30880D5
:1001A000043001F045FFFEE710B500F05FF810BD28
:1001B00010B500F0BDFB10BD10B500F0BFF810BDCC
:1001C00010B507F03FF910BD10B50EF09BF810BD4B
:1001D00010B507F04FF910BD10B505F0D9FA10BDF4
:1001E000F8B50D00012903D0082934D01C48F8BD0A
:1001F000032001F0FBFA1B4B9842F7D000F016FBEE
:100200000128F3D00220FFF7E7FF0700FFF785FF83
:10021000154E306005F0C0FA0400062801D1002018
:10022000E5E7022F0DD1033CBC433800E4B2FFF7F1
:10023000C7FF002C01D10028F1D03068FFF771FF13
:10024000D4E72800FFF7BCFF022CF6D00028F4D139
:1002500002F0F6F8F1E7044B1868FFF762FFDEE7FB
:10026000FF004200010188008805000810B5002841
:1002700005D0044B186000F09DFB002010BD024823
:10028000FCE7C046840500080100160070B5284D43
:1002900094B02E68002E48D001AC4C2200212000E2
:1002A00004F0EBFA0A21336869449A8AA2815A89D8
:1002B00022839A8962831F4AA2831A89CA87591C9A
:1002C000C87F13A908706946987F0531C8776946C9
:1002D000D87F0631C8775B7FE377D30701D505F078
:1002E00035FA2B681B681B899B0701D505F036FA88
:1002F0002B681B681B891B0701D505F02BFA07A883
:1003000005F07AFA00280ED12B681B689A695968A3
:100310006260002904D026302222684404F0A4FA46
:10032000200005F03DFA14B070BD0348FBE7C0465D
:100330008405000803040000FF00160010B5024801
:1003400001F0ECFF10BDC046C000000870B5544E6F
:100350003368002B00D180E09B68002B7DD0022405
:1003600023426DD14F4D504A0121A85804000C4042
:10037000084205D01C007F310C400B4200D00C001D
:10038000A958890703D504210B4200D00C43AB5870
:100390009B0660D5FFF71CFF444BEA58002A5AD051
:1003A000EA58120725D5424AA958C90605D5316829
:1003B00088684021084200D00C432021A8580842F8
:1003C00004D030688068084200D00C43394969582D
:1003D000890705D5316888680821084200D00C4398
:1003E000AA58520605D5326891681022114200D0F1
:1003F0001443EA58920714D52F4AA958090706D57D
:100400003168886880214900084200D00C43AA580E
:10041000D20606D53268916880229200114200D03F
:100420001443EB58DB0716D581235B01EB589B0681
:1004300011D533689A688023DB001A420BD01C4325
:1004400033681A79002A09D11C4A1268002A05D09B
:100450002000904701E0002CF2D170BDDC606424E4
:10046000174B31681A68087C1300BA331B88434362
:10047000106ABC3212681B189A181268002A06DA31
:10048000002CEAD0012001F0C1FD013CE8E7002C7E
:10049000E3D08022497C52028A40120C9A60DCE749
:1004A0009C05000800003C4068F0010008100000B6
:1004B000A810000034110000381000009405000856
:1004C000A005000810B5FFF77FFE044B1B68002B4A
:1004D00002D0002800D0984710BDC0468C05000807
:1004E00010B5024B1B68984710BDC0469005000828
:1004F00070B5041E08D00C4B1B68002B04D0457847
:10050000012D02D0FF2D09D070BD82681A6002F063
:1005100037FBFFF7BBFE2571A060F5E7034B1860C2
:1005200001230371F0E7C046980500089C05000808
:10053000002805DB1F2318401E3B8340014A13603F
:100540007047C04600E100E0002809DB1F23184087
:100550001E3B8340034AD367BFF34F8FBFF36F8FB8
:100560007047C04604E100E010B500F0CFFA022168
:10057000054A064BD150064B1B685B681B68002080
:10058000185EFFF7D5FF10BD00003C4078F0010079
:100590009805000804207047134B1B681B685B8C90
:1005A000D8B21B0ADAB2012805D10020834201D05B
:1005B000742B0BD1704702280DD10138002BF9D0D4
:1005C000683A100043425841C0B2F3E77C3B5A42BC
:1005D00053415800EEE7002803D1442BEAD1033001
:1005E000E8E70020E6E7C04698050008034B1B68D3
:1005F000181E01D01B6818787047C046980500087F
:10060000F0B5834CA544099380230C000590089213
:100610005B05994200D2F6E002F050F9051E38D091
:1006200002F054F90390022844D1052001F0ACFFF8
:10063000784B05009842F8D001230493F0231B0661
:10064000E3185E0A069376020021032001F058F8B1
:10065000071EF9D180235B05F61801903C002C435E
:1006600004D1019B089A934228D32700002801D087
:1006700001F0D6FC0021032001F07EF80028F9D11A
:10068000002D00D191E0644F38008B239B009D44E6
:10069000F0BD02F075F90523049003930028CDD135
:1006A000012002F09DF95B4B05009842F8D005232C
:1006B0000393C3E7012300250493BFE7802233009F
:1006C0009200B2180AA902940792F022069F12061D
:1006D0009A18BA4237D3089A019FBA4233D9059A79
:1006E000002A01D0019FD25D029F0A70002F05D120
:1006F0001F78BA1A571EBA41D2B20292019A013239
:100700000192079A013301319342DED1029B002B03
:1007100049D0099B0036002B3FD1C827300000F09C
:10072000E9FC0400012001F071FCA423A422DB03F6
:100730002340D203934209D1013F002FEED127007D
:10074000079E02988AE71A780A70DAE7334B9C42D0
:100750005BD100F043FD324B04009842F9D00028F1
:1007600013D1C8270AA9300000F03CFD0400012085
:1007700001F04CFCA423A422DB032340D2039342C8
:1007800003D1013F002FEDD1D9E7244B9C42D6D1B4
:1007900000F024FD224B0400F8E730000AA900F025
:1007A000E7FC0400CBE70290C9E702F087F80028D5
:1007B00009D0039B022B06D1022001F0E5FE154B68
:1007C00005009842F8D002F0EFF8002809D0049B09
:1007D000002B06D1002002F003F90E4B05009842D1
:1007E000F8D0002D00D04EE7002F00D14CE70423B5
:1007F0009F430C4B1220FF187B1E9F410A4B7F42E8
:100800000740FF1840E7084F3EE7002C97D1A8E7C4
:10081000D4FDFFFF0400420012001600010050004A
:1008200002005000FEFFADFF0100160010B50024CD
:10083000084B1B683E331B78A34201D8002010BD33
:10084000200001F059F8032801D00134F0E701201D
:10085000F5E7C046A0050008014B18687047C04680
:100860003806000810B500F0F7FFFD2318400138E6
:1008700043425841C0B210BD10B500F0EDFF10BDAD
:1008800010B501F04FF910BD10B501F0EFF810BD33
:1008900070B5040003200D00160000F0A7FF054B03
:1008A000984205D032002900200001F045F970BDC2
:1008B0000148FCE70101880003004A0010B501F07F
:1008C000EFF910BD10B501F0A1FB10BD064B10B53E
:1008D0001B685B68002B06D01B68002B03D0002030
:1008E000185EFFF725FE10BD98050008064B10B5F1
:1008F0001B685B68002B06D01B68002B03D0002010
:10090000185EFFF721FE10BD9805000810B5FFF72F
:1009100004FC10BD10B5FFF704FC10BD10B501F0CC
:100920008FFD10BD10B5002101F0EAFF10BD0000E1
:1009300010B503220020054900F0E2FD431E984156
:10094000034B40421840034BC01810BDF104001087
:10095000FEFFE9FF020016000A0010B5002809D0CA
:10096000FD235B00994205D2FA3B0349FF3BFFF7A9
:1009700047FE10BD0148FCE70708001601001600FD
:100980000A0010B5002808D0FD235B00994204D26C
:10099000034903F069FF002010BD0248FCE7C04690
:1009A000070800160100160010B5002000F02EFE0A
:1009B00010BD0000014B18607047C0469805000844
:1009C00010B5002000F008FE10BD0000074B10B568
:1009D000012219600100002000F092FD002803D1DF
:1009E0000200034900F08CFD10BDC04690050008D0
:1009F000E104001070B50B00150000210200012079
:100A000000F04EFD041E03D02900002000F08CFDF4
:100A1000200070BD0388AE205843044B10B5C018A9
:100A20000C000A2102F0A0F9208010BD91FCFFFF0C
:100A30000022835E044810B558430C00034902F0BD
:100A40001DFABD30208010BD4B280000F0D8FFFFFC
:100A5000014B18607047C046A0050008F8B5802318
:100A6000FA270E0001251B020C4C18430004E0611C
:100A7000BF00236C2B4208D1002F01D108480CE0A5
:100A80002800013F01F0C2FAF3E7002FF6D0002062
:100A9000236C1D432564E36A3380F8BD00003C40AD
:100AA0000400160070B5FA2601240C4D000408431A
:100AB000E861B6002B6C234208D1002E01D1084812
:100AC0000AE02000013E01F0A1FAF3E7002EF6D083
:100AD00000202B6C1C432C6470BDC04600003C40C1
:100AE0000400160010230449044A885803438B501D
:100AF0000022034B1A60704700003C4070F0010078
:100B00003806000810B5FFF7EDFF10BDF0B51B4B20
:100B10009DB001A90A00180070C870C270C870C2E8
:100B200070C870C214001A0020002432E0CAE0C06D
:100B3000E0CAE0C0E0CAE0C0020048330500C1CB13
:100B4000C1C2C1CBC1C2C1CBC1C20D4E336898690D
:100B50000130FF3000F084FB336821009869813058
:100B6000FF3000F07DFB33682900986980239B00EB
:100B7000C01800F075FB1DB0F0BDC04688490010DC
:100B8000A0050008F0B589B003930EAB1B78049064
:100B9000009105920293012800D9E9E1032900D9C7
:100BA000E6E1039B0C3B872B00D9E1E1FB2A00D94E
:100BB000DEE101F073FF002801D001F07BFC01238E
:100BC000BC4FBD4D7A591A4204D0BC4ABA581A4299
:100BD00000D0CFE1FFF79AFFB94BBA4AFA50A023F1
:100BE000039A1B031343B84ABB50B84BB84AFA5098
:100BF000B84B5A6801231A4200D0BDE1B64ABA5830
:100C000012073ED53A68B5495B030B431A433A6075
:100C100001F054FE002843D0029B002B40D103205A
:100C2000012101F06DFE012001F08AFE7E59AC4BDE
:100C3000402033437B5101F0E9F90123A94C3A5993
:100C40001A4208D140203B5101F0E0F90323402033
:100C50003B5101F0DBF9A44BA44C1E4001963443F8
:100C6000FA267C51F600A24B1B689A69A14BD35817
:100C7000102213421FD1002E18D19F4C200009B022
:100C8000F0BD01F007F99D49884202D83A689C4BB3
:100C9000BCE702F069F83A68431E0128F7D0B2E7D2
:100CA0000323984AB9580B43BB50BFE70120013ECC
:100CB00001F0ACF9D7E7002EDFD00823924A0120DB
:100CC000B9580B43BB5001F00DFB002802D0029B2A
:100CD000012B02D18D4C019B1C4301268C4B1C40E7
:100CE00034437C518B4C754BFB58334206D1002C5E
:100CF000C3D03000013C01F089F9F4E7002CBCD0EE
:100D00000B26C02184484901FFF7CCFE041E05D103
:100D100006AB8148991DFFF7A1FE0400013E002E9D
:100D200060D1754C01F09CF9212843D0B0277B4E4F
:100D30007F05BB5B002B3DD0002C9FD106AB9D1DDA
:100D400029007748FFF78AFE041E00D096E7B95BBA
:100D5000288860344908A043214001437148BA5BA8
:100D60000140F020D201C000024011436E4ABB5B3B
:100D70001140C022DB00520113401943684829800A
:100D8000FFF790FE041E00D078E729006748FFF7C0
:100D900065FE041E00D071E7FF23C022B95B6348E3
:100DA0000909890119402B88934319432980FFF7CA
:100DB00079FE0400002C00D060E7059B5C495A00D6
:100DC00011435C4889B2FFF76DFE041E04D15A49F5
:100DD0005A48FFF767FE0400039B580180B201F0F8
:100DE00015F94BE7002C9DD1C02206AB9D1D2B8829
:100DF0005201934200D084E729005148FFF72EFEAC
:100E0000041E8FD180262B88F600334236D029006D
:100E10004C48FFF723FE041E00D083E76A46128881
:100E20002B880292049A012A00D093E000990132A3
:100E300016000190012904D802990E00521A92B2AC
:100E400001923F229343313213432B803E4B009A51
:100E50002988D3403D4A31433A4813602980FFF73F
:100E600021FE029B04009A1B03231340019A960063
:100E70001E43374BB6B22E80FE5053E70B2301932F
:100E800031002F48FFF70EFE041E04D129002C4824
:100E9000FFF7E4FD0400019B013B0193002B00D10F
:100EA0003FE7002C00D03DE780222B88D200934200
:100EB000E6D1ACE700003C40A0F00100B4F0010036
:100EC000A4F0010006000001A8F00100ACF0010050
:100ED00001000100FC003C4070F00100041A008099
:100EE00030000300B0F00100EFFFFEFF2000020021
:100EF000A0050008104000000400160000093D0095
:100F0000040A0080C4F0010068F00100280002001B
:100F1000FFFFFBFFF07E0E00021E0000161800000F
:100F2000071E00007FF5FFFFFFE7FFFF061E000022
:100F300001100000081E0000376800000F1E0000AE
:100F4000031E0000091E00000048E80138060008E2
:100F500064F00100009A01260190002A01D1019657
:100F6000009E7F2293436F3A13432B80034B6EE71F
:100F7000034C83E6034C81E6034C7FE60024F40037
:100F800001001600030016000200160013B5002829
:100F900008D0002403784278C17880780094FFF765
:100FA000F1FD16BD0048FCE701001600044B1B686C
:100FB0001A00BA3212881B6A5043C0187047C046E4
:100FC000A0050008A02300B51B06984226D015D81E
:100FD000802825D00AD8102824D0402824D00028E2
:100FE0000BD0154809E0A420C00306E08022134B73
:100FF000520090421CD09842F3D100BD104B984251
:1010000018D0104BC0180428EBD801F099FEECEA78
:101010000F0305000C48F0E70C48EEE70020ECE772
:101020000B48EAE70B48E8E70B48E6E70B48E4E73C
:101030001800E2E7A020D7E7FF00520006005200A8
:10104000090000A0FFFFFF0F020052000300520042
:101050000500520001005000020050000100520043
:1010600010B50020FFF7A2FF0A4B1C682300BC3319
:101070001B68C0180368002B0ADB074B1868FFF7D2
:10108000A1FF012263689A609A68002AFCD110BD12
:101090000248FCE7A0050008A40500080200500073
:1010A0000D4B10B51860002804D0FE235B4203806E
:1010B00000234380094B1B681A0050321278002A23
:1010C00008D051331B78002B04D0022200200449A1
:1010D00000F016FA10BDC046B4050008A0050008CF
:1010E000B102000810B50248FFF7DAFF10BDC04694
:1010F0002005000810B5C3050400002B29D101F01C
:101100003FFDE022144B52051A60144A1278002A5F
:1011100004D08022196852000A431A605C600024DF
:101120009C60DC600E4B1B68543318780100A042B1
:101130000CD000F0BCFEFA21890001F015FE010080
:10114000084801F011FE084BC118200003F0ACFB69
:1011500010BD0648FCE7C046A40500080B000016B9
:10116000A005000860F590009808000006005200F5
:10117000C30570B505000C00DE0D002B20D1002941
:101180001ED001F0FDFC0F4B0F4A1A605E609D609F
:10119000DC600E4B1B685233197800290BD000F02D
:1011A00086FEFA21890001F0DFFD0100084801F008
:1011B000DBFD084BC1188020400003F075FB70BDBB
:1011C0000548FCE7A405000800010005A00500088B
:1011D000C0EA2101482600000600520010B5FFF7C2
:1011E0003FFF10BD70B5C30505000C00002B2AD1D0
:1011F000002928D001F0C4FCC0228021134BD20466
:101200001A60134A49001278002A02D01A680A4369
:101210001A6059609D60DC600E4B1B685333187870
:10122000011E0DD000F043FEFA21890001F09CFD63
:101230000100094801F098FDE1239B00C11800203E
:1012400003F032FB70BD0548FCE7C046A40500086A
:101250000B000016A0050008808D5B000600520000
:1012600030B5002830D000292ED0184BCD681A6830
:1012700093695469C31ADB091B011B1914008134DB
:101280002478241825601400823424780D692418E9
:1012900025601400833424784D69241825601400D7
:1012A000803424788D68241825604C6884328461E9
:1012B00012788C6912181460CA691A600A6A5A6036
:1012C0000B680360002030BD0148FCE7A005000862
:1012D00001005A000E4B10B51B689C695B69001B2E
:1012E000C0090001C0181F231A40032907D8C900EC
:1012F0008B408A4004689C432243026010BD04393D
:10130000C9008B408A4044689C4322434260F5E711
:10131000A0050008F8B51E0006AB15001A780700F6
:101320000C00FFF7D7FF012319001E40A140A64083
:101330003A68A4008A4316430F2211001540A140C9
:10134000A540054B3E601B68813318783F183B6809
:101350008B431D433D60F8BDA005000801238B4071
:10136000002A01D1436070478360FCE7064B1B688D
:10137000BC331B68C3181B68002B03DA89B24160B9
:10138000002070470148FCE7A005000801008A0022
:101390000368002B04DA89B2C260816000207047C4
:1013A0000048FCE701008A00064B1B68BC331B6841
:1013B000C3181B68002B03DAC36800200B6070475A
:1013C0000148FCE7A005000801008A00024B1A68EA
:1013D000002A00D118607047B8050008F0B52C2429
:1013E000444315481F0000681E0A0019FF242640C8
:1013F0002740124C1B0C256807602C6A46608360EE
:10140000BA352D886F433F190761370080377F0158
:10141000E7190B4D76014761A4191F043B4364197A
:10142000236000238361059BC2610162002B01D010
:101430001B888381F0BDC046B8050008A0050008E0
:1014400008100000F0B5836885B002AD2B800368FA
:10145000066A1933AB704368476A0095826AC16AAD
:10146000040003930369C068FFF7B8FF00213B0045
:101470000A0030000091FFF7B1FF2800216B00F057
:1014800063FD0022AB5E002B06DB1F2213401E3AD9
:101490009A401300014A136005B0F0BD00E100E07E
:1014A000F7B52C26134C70434E432468019325183E
:1014B000A4192E69002E19D0A069002818D131680E
:1014C000002915DA01216F680D0063689D40AC4664
:1014D00013689DB263461B041D431560F260A16151
:1014E000B940019B89B26362B160FEBD0248FCE76E
:1014F0000248FAE7B805000804028A0007028A00D9
:101500002C23434306480068C018C369934204D99A
:10151000036A00209200D15070470248FCE7C046A1
:10152000B80500080A028A002C224243024B1B68BD
:101530009B1899627047C046B805000873B500262D
:1015400042690400D56801962B0CB34221D01B04DC
:1015500013601368194B00691B68BC331B68C31800
:101560001B68B34215DA01A9FFF71EFFB0420CD188
:101570000198E26903681E0CDBB29A4205D9226A1F
:101580009B009B58002B00D0984731002069FFF743
:10159000EDFEADB2002D09D063691D6000251B680A
:1015A000636AAB4205D098476562A56163691B68B1
:1015B00073BDA36A002BF8D09847F6E7A005000892
:1015C0002C2310B54343034A1068C018FFF7B6FF39
:1015D00010BDC046B80500082C220A4B42431B68C8
:1015E0009B180C229B5E002B0ADB1F2213401E3A25
:1015F0009A401300044AD367BFF34F8FBFF36F8F36
:1016000000207047B805000804E100E02C22084BD8
:1016100042431B689B180C229B5E002B06DB1F229B
:1016200013401E3A9A401300024A1360002070478C
:10163000B805000800E100E01A4B70B51A680C000C
:10164000130033331B7883422AD9002928D00D6830
:101650001F212B000B400D4222D11100BA31098805
:10166000126A48431900104D8018286022685209F8
:10167000934210D30021FFF779FE00212200286851
:10168000FFF786FE011E04D12868FFF76FFE0028D1
:1016900000D0064870BD66689A0091510133E5E7B5
:1016A0000348F7E7A0050008BC05000801018A000F
:1016B00003018A0010B504000800002A0CD100299B
:1016C00013D10B4B1A681300BA331B88126A634399
:1016D0009B18084A136010BD002906D0064908600F
:1016E00020004A60FFF7A8FFF5E70448F3E7C0468B
:1016F000A0050008BC0500082405000803018A00B5
:10170000F7B5194F04003B680191DE6833688342E6
:1017100027D90025A94202D1FEF7FFFC0500386851
:101720000368002B1BDA1F21012221408A407368C5
:1017300016006409A4001C1923681E401A420CD12B
:10174000134323600021FFF711FE019B002B02D100
:101750002800FEF7E6FC3000FEBD044EF2E7044E22
:10176000F3E7044EF7E7C046BC0500080201880015
:101770000301880004018A00F7B5184F04003B6894
:101780000191DE683368834226D90025A94202D13F
:10179000FEF7C3FC050038680368002B1ADA1F2225
:1017A00001232240934064097268A400141922683E
:1017B00013420DD09A43226000240021FFF7D6FD8A
:1017C000019B002B02D12800FEF7ABFC2000FEBDE0
:1017D000034CF2E7034CF3E7034CF7E7BC050008C2
:1017E000020188000301880004018A000A4B1B687B
:1017F000DB681A6882420DD959681F2342091840D4
:101800001E3B8340920050581840431E9841034BA2
:10181000C01870470248FCE7BC05000800018800BA
:1018200004018A00044B10301B6880021B69C058F9
:101830000F2318407047C046A0050008054B1B68E1
:101840001A0088321B6812689B181868000AC0B218
:101850007047C046A0050008A023034ADB00D0580B
:10186000032318407047C04600002640044B1B6805
:101870001A0088321B6812689B181868000E70479F
:10188000A0050008034BE0308000C0588006800FA0
:101890007047C04600002640024B18694007C00F41
:1018A0007047C046000027400449054A80058B5810
:1018B000800D9B0A9B0203438B507047000026401B
:1018C0003C050000A6220549D2008B580220DB43CC
:1018D0009B0702D00123885818407047000026401B
:1018E00010B5FFF7EFFF0023022801D1014B1B6861
:1018F000180010BDCC050008094A83009B18D022AF
:101900009200985807221040042807D1C022920064
:1019100098581F2303408020400018437047C0465A
:101920000000264010B5FFF7E7FF032806D801386E
:10193000022828D801F00EFA0F1215001223FF33E7
:10194000984218D01423FF33984219D0033B984291
:1019500009D0002004E00D4B186801E0FFF7C0FF3C
:1019600010BD0B4BF8E70B4A0B4BD358002BF0DAAA
:1019700080200002F4E7FFF78FFF0028E9D0F7E7A7
:10198000044A064BF1E70648EAE7C046C8050008E6
:1019900038060008000026400C0500003C05000049
:1019A00000127A00B023154ADB00D35810B5990312
:1019B000DB01DB0F890BC371114B0160D3580F247E
:1019C000D904DB01DB0D0381B123DB00D358C90C43
:1019D000818019002140817219092140C172D90208
:1019E0009B009B0F8373074BC90CD35881815A0509
:1019F000DB01520FDB0D8271038210BD0000264017
:101A0000840500008C0500008030034BFF3080000F
:101A1000C058C00F7047C0460000264010B5104B9C
:101A2000421E1B683F331B78934216D97F221F2426
:101A300080300C4BFF308000C3581A400A701A0CDB
:101A40002240180A8A701A012040E24048700020A3
:101A50009B009B0FCA700B7110BD0348FCE7C0468A
:101A6000A00500080000264001004A00F7B500224A
:101A7000244B07001A70244B08001B681A00BA3266
:101A8000118807224A431B6AD2181368002BFCDA1C
:101A90001E4B1F491C6800238C4206D11D4B1E495A
:101AA0001B685B1859424B41DBB2A42100251B4C3B
:101AB000C90061582E005560AB4216D00B0201934D
:101AC0001E0AAB4211D0164B1C68AF420FD1220048
:101AD0003B00390001F0DEFA3B00019C620A8018ED
:101AE0005941320001F0B6FA06003000FEBD320066
:101AF0002B00290001F0CEFA2B0062088018594112
:101B00002200EFE7C4050008A005000808012640F0
:101B10001F1F000004012640C3C2FFFF0000264033
:101B2000C0050008024A034BD058C00F7047C0469A
:101B3000000026401C050000C223F7B5DB0015009D
:101B40000091984200D38DE09A4200D38AE080232E
:101B50005B04994200D385E00122434B1A70FF28B1
:101B600012D80F231C0018400632FF2D27D8FF265D
:101B70002D0135402843E025ED022A43F0252C4372
:101B8000F0252D032B4324E0A023DB00984205D24F
:101B90000F2302001A4000242000E6E7C023020AB7
:101BA000DB00984204D2FF2304011C402243F2E7E9
:101BB000F02300021B01184002432C4BEBE7A02648
:101BC000F600B54239D2F0262D04360335402A43BB
:101BD0003343274D07262F683D00BA352D886E43C5
:101BE000350001963E6AAD192E68002EFCDA214DB3
:101BF0002E78214D002E03D0204EAE59002E2FDA24
:101C00001F4E20493160204E20493160A321C90078
:101C10006E58A64306431E4C6E5028599843024303
:101C200000202A511B4B009A1A60144BEA503B6A61
:101C3000019AD31800225A60FEBD2E0A36043243A0
:101C4000C026F600B54207D2F0262D0536043540F1
:101C50002A43FF252D0495E72D062A430E4D91E7D3
:101C60000E48E4E70D48E7E7C40500080F0F000041
:101C7000A0050008D0050008000026401C05000053
:101C8000080126401F1F0000040126403D3D0000C2
:101C900014050000C005000800000F0F01004A00F5
:101CA0001C4A03001168802212028A1870B5824211
:101CB00006D20026184A8518B5420BD1684220E0AA
:101CC00080221202501A984221D90020D51A9A4235
:101CD00017D00126114A124BD0588005840D4808B0
:101CE000401901F041F80500002E0BD080230019A7
:101CF000DB00984200D30B48FFF7D6FD2800002EEA
:101D0000DCD070BD201AC343DB171840F4E7002570
:101D1000D4E7C046DC0000080080FFFF000026403A
:101D20003C050000FF030000F0B589B003AC2000C3
:101D3000FFF738FEB0231A4ADB00D25800239A423C
:101D400003DAA37B023B5A1E9341E57900266A1E03
:101D500095410135B34220D0A488B4421DD0300053
:101D6000039FFFF7DFFD2A003300310001902000C0
:101D700001F090F90C00050033003A0031000198A1
:101D800001F088F9E6076A08324363088018594170
:101D90002A00230001F05EF90600300009B0F0BD12
:101DA00000002640F7B5234B06001B683F331B7825
:101DB000002B08D000283BD0834204D36946FFF7AC
:101DC0002DFE041E01D0002632E03000FFF71CFE7D
:101DD0002300002805D06B461C79023C23005A1EC4
:101DE00093416A465478002BEDD0002CEBD09578C7
:101DF000002DE8D030001778FFF794FD002306008F
:101E00002A002000190001F045F900230C0005000C
:101E10003A003000190001F03DF9E6076A08324344
:101E20006308801859412A00230001F013F90600C5
:101E30003000FEBDA005000810B5041E04D1FFF758
:101E400073FF002806D008E0064B1B683F331B7861
:101E5000834203D22000FFF765FD10BDFFF7A2FF0C
:101E6000EFE7C046A005000870B50500FFF70AFDC2
:101E7000E035074BAD000400E8580F231840FFF78A
:101E8000DBFF0123A3405B081818E04070BDC0468B
:101E90000000264010B50020FFF7E6FF0400FFF722
:101EA000E5FC411C4808001900F05EFF10BD10B5AC
:101EB000FFF7F0FF0400FFF7C1FC411C48080019C0
:101EC00000F052FF10BD0000144B30B51C68230019
:101ED0002C331A7807231F2A15D8820815009D4332
:101EE0002B1E0FD103331840984081402368920085
:101EF00020339B180A00FF2181401C68624011407A
:101F00006140196030BD184080231B0618438023B0
:101F10009B012268C91889008850F3E7A0050008D2
:101F2000064B10B59A68064C10308300A24202D1CD
:101F30009858995010BD034AD058FBE700ED00E0D7
:101F40000000000800000010F8B506000D00002891
:101F50003AD00023C05E002828DBB178FFF7B4FF39
:101F60000024FF22032794460023F05E7168074097
:101F7000FF006646BA4089013140D243B94083B27E
:101F8000002815DB114E83089B009B19C026B60064
:101F90009F593A40114399510D4B9A680D4B9A4203
:101FA00002D12900FFF7BCFF2000F8BD0A4CD8E79A
:101FB0000F263340083B064E9B089B009B19DE69A9
:101FC00032401143D961E7E7034CEDE700E100E05F
:101FD00000ED00E0000000080100560070B50400AC
:101FE0000120094E4042316800F0BEFE0500306815
:101FF000AC4203D86043FEF787F870BD6843FEF734
:1020000083F8641BF3E7C046F800000810B5034BE3
:102010001B785843FEF778F810BDC046FC00000856
:102020000122024B1B685B689A607047A00500089C
:1020300002680A4B10B51A6042685A6082689A605A
:10204000C268DA6002691A6142695A6182699A61FA
:10205000C269DA6100F048FD10BDC04640050008C5
:10206000B0235B055A782120002A01D05878C0B2ED
:102070007047B0235B059A89002A02D0988980B204
:10208000704780204000FBE770B51E4EC0253368C6
:102090002D011A009C321B6812689B181C68FFF700
:1020A000E8FF80232C405B0098420ED10020FFF710
:1020B000B9FB0400FFF7D4FF01221300222801D846
:1020C000634263411340180070BD33680E4E19001F
:1020D0009C311A68086812181068304010601A683D
:1020E00008681218280016686040304310601B68AA
:1020F0000A689B1818682840001B431E9841C0B20C
:10210000E2E7C046A0050008FFF3FFFF70B5FFF748
:10211000B0FF8023194A5B00984215D111680F2443
:102120000B0002229C3318680B6818180368A3433D
:10213000134303600800A0300B6801685B1819683E
:10214000A1430A431A6070BDB02412680C4B110001
:102150006405E3580B4D9C312B40C025106809687D
:10216000AD0041180868284003430B601100A031FE
:1021700013680A689B18044AA258E3E7A005000800
:1021800048180000FFFCFFFF4418000070B5FFF77F
:1021900070FF8023154A5B0098420DD113681449E3
:1021A0001A009C3212681B689B181A681140802222
:1021B000D2010A431A6070BDB02412680D4B1100A1
:1021C0006405E3580C4D9C312B40C025106809680C
:1021D000AD0041180868284003430B601100A0318E
:1021E00013680A689B18054AA258E3E7A00500088F
:1021F000FF8FFFFF50180000FFFCFFFF4C1800008E
:1022000010B5FFF736FF8023124A5B0098420DD1CC
:10221000136811491A009C3212681B689B181A68CF
:102220001140C022D2010A431A6010BDB0211268C9
:102230000A4B4905CB58110009489C310340C02086
:102240000968126880005218116801400B4313603E
:10225000EBE7C046A0050008FF8FFFFF1C18000039
:10226000FFFCFFFF70B5FFF704FF80231A4A5B00F5
:10227000984215D111680F240B0003229C33186873
:102280000B6818180368A343134303600800A030C9
:102290000B6801685B181968A1430A431A6070BD96
:1022A000B02412680D4B11006405E3580C4D9C31AD
:1022B0002B40C02510680968AD0041180868284007
:1022C00003430B601100A03113680A689B18C122F8
:1022D0005201A258E2E7C046A005000824180000F9
:1022E000FFFCFFFF02000020824202D1094B586927
:1022F000C00F094B1B6847331B78002B09D0012AFC
:1023000007D1044B10009969490001D49869C00FA6
:102310001040704700002640A0050008030070B57B
:1023200000281BD0C068002818D01868002815D0D5
:102330001C79164DA4006259111E09D163515A61CE
:102340001A6119E0067E1A7E964200D8010002004A
:102350005069002803D09A42F4D1002070BD9A42FF
:10236000FCD00A69002A09D11E7E087E864205D269
:1023700059611A612B510B610120EFE74A6919611C
:102380005A61002A00D013614B61F5E7140600087A
:102390007FB5274B86000D00F458042901D0012990
:1023A00027D100200FE0A3682B420BD1E36829005E
:1023B0001A685B6802920193039302A82368984706
:1023C0001C4B1C606469002C0BD01B4B9842EAD15B
:1023D000012DE8D1174B18481A68184B9A5104B0D0
:1023E00070BD012DFBD1144B9842F3D0134B9C517F
:1023F000F5E7022915D026006469002CFBD10020E6
:10240000002EECD0B3682B4209D1F36829001A687A
:102410005B6802920193039302A833689847366978
:10242000EEE7044B1B68181ED9D01E69E7E7C046CB
:102430001406000810060008FF004200FC05000812
:1024400070B5194C06002368002B1AD1FDF765FE04
:1024500023680500002B20D10421144A13698B4303
:102460001361012E1ED030BF2800FDF75AFE2368ED
:102470000024A34203D008212000FFF789FF200099
:1024800070BD01210020FFF783FF0028DED002216C
:102490000020FFF77DFF064CF1E704210020FFF745
:1024A00077FFD9E720BFDFE71406000800ED00E062
:1024B000FF00420070B5FDF730FEE821064B074DE6
:1024C0005C6889012C40214359605A682A405A604F
:1024D0005B68FDF726FE70BD00002640FF00FC0F84
:1024E000F8B50400FFF7BCFD85B2FFF7C2FD070099
:1024F0000020FFF797F980235B00002811D19F424D
:1025000013D1222D11D88025194B6D041B68240688
:102510005968184B2C40CA58174D2A401443CC50C8
:10252000F8BD9F4201D1222D1AD9114E3268156A89
:102530009F4217D1631E9C41104B220201212800AB
:10254000D218FEF725FF00280AD13368BC331B6878
:10255000EB181A68002AFCDBEB681B0EA02BDFD0FF
:102560000748DDE7631E9C41064B6200E6E7C04674
:10257000A005000818F00000FFFFFFFE010000307A
:10258000040042000100000C70B50600FFF77CFD5E
:10259000002834D0FDF7C1FD0500022E17D101201F
:1025A000FFF79EFF041E0DD1FFF7B0FD072215496E
:1025B0004B699343324013434B61022E15D1FFF711
:1025C0001FFE00242800FDF7ACFD200070BD07228F
:1025D0000C4934204B6993431A00032313434B6186
:1025E000FFF714FDFFF7D2FDE0E79120FFF70EFDA6
:1025F000FFF738FE0020FFF773FF0400E2E7024C0C
:10260000E3E7C04600002640030042001A4B1B6867
:10261000190088311A68096851180968016219009F
:102620008C3109685218126842621A0046321278D8
:10263000002A1FD09A68E0321268D2061AD5F22218
:10264000DB68D2019A580260F022D2019A584260A7
:102650000A4A9A5882600A4A9A58C260094A9A58A5
:102660000261094A9A584261084A9A588261084AA6
:102670009B58C3617047C046A0050008047800005D
:10268000087800000C780000107800001478000032
:10269000187800001A4B1B681A00883219681268F3
:1026A0008A18016A11601A008C32196812688A1837
:1026B000416A11601A0046321278002A1ED09A68C8
:1026C000E0321268D20619D5F0224168DB68D201E7
:1026D000995081680B4A9950C1680B4A9950016919
:1026E0000A4A995041690A4A99508169094A9950A0
:1026F000C169094A99500168E83299507047C0464B
:10270000A005000804780000087800000C7800009C
:10271000107800001478000018780000F7B5070062
:10272000FFF79EFC5D4D06006B68002B00D07DE03E
:10273000FDF7F3FC6B680090002B00D089E0584C4B
:1027400022681300BA33198807234B43126A9B1877
:102750001A68002AFCDADB68DA0021D51B0F1B0798
:1027600050480193FFF752FF20684F490300883318
:102770001C6803681C1923680B40212E00D06DE0F3
:10278000902212011343236003008C3300681B68FE
:10279000C318186801400A431A60424B019A134358
:1027A00080223F4E9205316813430A00BA321088E6
:1027B000072200244243096A5218D36054605368C8
:1027C000FFF757FC80235B0098424AD1380002F0A3
:1027D00073F832681300BA33198807234B43126A1F
:1027E0009B181A68002AFCDADF68FB0003D5380161
:1027F0000009FFF74FFF2D4B32681F401300BA331B
:10280000198807234B43126A00989B180022DF6047
:102810005A60FDF786FC002C0FD16B68002B03D0AB
:1028200008210120FFF7B4FD2000FEBD01210800B2
:10283000FFF7AEFD041E00D17AE76B68002B03D0D2
:1028400002210120FFF7A4FD194B9C42ECD0194C4A
:10285000EAE704210120FFF79BFD70E78022520088
:1028600090E733681A00BC32196A1268521811686E
:10287000002910DBBA331B889A181368002B0ADB77
:1028800004230D4A11690B431361012F01D030BF9E
:102890009FE720BF9DE7064C9BE7C0461406000853
:1028A000A0050008D4050008FF00FFFFFFFFFFDFC1
:1028B00005004200FF00420000ED00E0024B5869B5
:1028C0004000C00F7047C04600002640024B5869C8
:1028D000072318407047C046000026400020064BE2
:1028E0001B6847331B78834203D0044B9869072346
:1028F0001840C0B27047C046A0050008000026403E
:1029000070B50D4B04001B680D0047331B78002B7E
:1029100011D0FFF7E3FFA0420DD0072207498B69D2
:102920009343224013438B61002D04D0A04202D276
:10293000C820FFF76BFB70BDA00500080000264013
:1029400010B50400FFF7BAFF0A4B1B6847331B782A
:10295000002B09D0002807D0074B002C05D080227F
:102960009969D2050A439A6110BD9A6903490A40E0
:10297000F9E7C046A005000800002640FFFFFFBFA2
:10298000074A084BD058B022E8235205DB00D35C3D
:102990001F221040C01A431E9841C0B27047C04663
:1029A000000026401CFF00000120024B1B68DB0DCD
:1029B000984370470000264010B5FFF7F5FF431E0F
:1029C0009841054A03069B18044A10681840C01A2B
:1029D00043425841C0B210BD0000045200002640DE
:1029E000F7B50500FFF750FB002848D0FDF795FB31
:1029F000B026244C244F01907605002D1CD1E823ED
:102A0000E551DB000120F75CFFF76AFDFFB2061E0F
:102A10000DD1FFF77BFB1F211C4A0F40A3588B43AE
:102A20001F43A750002D20D1FFF7EAFB2E0001988D
:102A3000FDF777FB3000FEBDFFF7BEFF50230028F7
:102A400001D1134BF3581F22E3511049114B0320BE
:102A5000F75C6358FFB293431A000B231343635090
:102A6000FFF7D4FAFFF792FBD5E70720FFF7CEFA7E
:102A7000FFF7F8FB0020FFF733FD0600D7E7064E0F
:102A8000D8E7C04600002640307F00001CFF000051
:102A9000101800004107000003004200024B586874
:102AA0008003C00F7047C04600002640C02280202F
:102AB000064952008B58C0059B009B0803438B506E
:102AC000802388581B0603438B5070470000264024
:102AD000044B10B51B68002B01D0FDF737FCFDF748
:102AE000F1FC10BD9C050008002313B50622072148
:102AF000FA240B480093FEF70DFC64000022072126
:102B00000748FEF72BFC2000FFF768FA0122072197
:102B10000348FEF723FC2000FFF760FAEEE7C0460B
:102B20008006324010B562B6FFF7B8FF002801D02A
:102B3000FFF7C0FC0B4C0C4863680C491860FFF7AA
:102B400003FA2000FDF730FBFDF732FBFDF734FB05
:102B5000074800F0CBF802F017FE0020FFF7DEFD7B
:102B6000F9E7C046E0000008F4490010D12A00103F
:102B70000000021010B50020FEF722FD10BD7047C6
:102B800010B50020FFF770F9041E28D0144B186010
:102B9000FEF76CFE411C200000F0E6F8114B04002B
:102BA0001860FEF74BFE411C200000F0DDF8040029
:102BB0000D4B013C18600D49200000F0D5F8FA21BA
:102BC0000B4B013018708900200000F0CDF8094B44
:102BD000013018600020FFF747F9074B186010BD5F
:102BE000F0000008F4000008E800000840420F0070
:102BF000FC000008F8000008EC00000810B52148AF
:102C0000FDF726FFB022E02130201F4CD200A35850
:102C100089005B005B08A3506358834363508023A3
:102C20005B04A350194B1A4AE250A02204339201CC
:102C3000E250FF22174BE250FFF738FFC02201217C
:102C40005200A3588B43A350FFF799FFFFF798FF5B
:102C5000114B03201A681300BA33198807234B431A
:102C6000126A80219B180022DA605A600B4AFEF734
:102C700021FD0B48FEF7AAFB0A48FEF7E3FBFEF72F
:102C800031FA10BDC848001000002640840500003D
:102C9000010002008C050000A00500082C050008BA
:102CA0003C060008FC490010024BD86F0323184073
:102CB0007047C0460400214010B5FDF72EFA0749C1
:102CC000074ACB6F1A40074B1343CB6710230649C3
:102CD0000A681A42FCD0FDF724FA10BD0400214016
:102CE000FCFF00000100FA058800214070B50F4D7F
:102CF0000600FDF712FAEB6F0400DB439B0701D1DE
:102D0000FFF7DAFFB0230A4A9B00D650EB6F094A5F
:102D100009491A40094B1343EB6710230A681A420A
:102D2000FCD02000FDF7FDF970BDC0460400214035
:102D300000002140FCFF0000880021400300FA054C
:102D400002B4714649084900095649008E4402BC44
:102D50007047C04602B4714649084900095C490001
:102D60008E4402BC7047C046002243088B4274D395
:102D700003098B425FD3030A8B4244D3030B8B427C
:102D800028D3030C8B420DD3FF22090212BA030C85
:102D90008B4202D31212090265D0030B8B4219D366
:102DA00000E0090AC30B8B4201D3CB03C01A524186
:102DB000830B8B4201D38B03C01A5241430B8B42CE
:102DC00001D34B03C01A5241030B8B4201D30B03B7
:102DD000C01A5241C30A8B4201D3CB02C01A5241DE
:102DE000830A8B4201D38B02C01A5241430A8B42A1
:102DF00001D34B02C01A5241030A8B4201D30B028A
:102E0000C01A5241CDD2C3098B4201D3CB01C01AA3
:102E1000524183098B4201D38B01C01A52414309AD
:102E20008B4201D34B01C01A524103098B4201D39B
:102E30000B01C01A5241C3088B4201D3CB00C01A08
:102E4000524183088B4201D38B00C01A5241430880
:102E50008B4201D34B00C01A5241411A00D20146A5
:102E6000524110467047FFE701B5002000F0F0F82E
:102E700002BDC0460029F7D076E7704703460B43F2
:102E80007FD4002243088B4274D303098B425FD363
:102E9000030A8B4244D3030B8B4228D3030C8B428F
:102EA0000DD3FF22090212BA030C8B4202D3121275
:102EB000090265D0030B8B4219D300E0090AC30B4A
:102EC0008B4201D3CB03C01A5241830B8B4201D3F7
:102ED0008B03C01A5241430B8B4201D34B03C01AE0
:102EE0005241030B8B4201D30B03C01A5241C30A58
:102EF0008B4201D3CB02C01A5241830A8B4201D3C9
:102F00008B02C01A5241430A8B4201D34B02C01AB2
:102F10005241030A8B4201D30B02C01A5241CDD257
:102F2000C3098B4201D3CB01C01A524183098B42A2
:102F300001D38B01C01A524143098B4201D34B018B
:102F4000C01A524103098B4201D30B01C01A5241EE
:102F5000C3088B4201D3CB00C01A524183088B4275
:102F600001D38B00C01A524143088B4201D34B005E
:102F7000C01A5241411A00D20146524110467047D0
:102F80005DE0CA0F00D04942031000D340425340D5
:102F900000229C4603098B422DD3030A8B4212D395
:102FA000FC22890112BA030A8B420CD389019211C7
:102FB0008B4208D3890192118B4204D389013AD004
:102FC000921100E08909C3098B4201D3CB01C01AD9
:102FD000524183098B4201D38B01C01A52414309EC
:102FE0008B4201D34B01C01A524103098B4201D3DA
:102FF0000B01C01A5241C3088B4201D3CB00C01A47
:10300000524183088B4201D38B00C01A5241D9D25E
:1030100043088B4201D34B00C01A5241411A00D2DF
:103020000146634652415B10104601D34042002BDB
:1030300000D54942704763465B1000D3404201B55A
:10304000002000F005F802BD0029F8D016E770470F
:103050007047C046002B11D1002A0FD1002900D1A2
:10306000002802D00021C943080007B4024802A189
:103070004018029003BDC046D9FFFFFF03B4684665
:1030800001B5029800F052F8019B9E4602B00CBCBC
:103090007047C046F0B5CE46474680B50700994612
:1030A0003B0C9C4613041B0C1D000E0061460004E3
:1030B000140C000C45434B4360436143C0182C0C77
:1030C00020188C46834203D980235B029846C4446F
:1030D000494679437243030C63442D042D0CC918EF
:1030E000000440198918C0BCB946B046F0BDC046BE
:1030F00070B500220C4B04000D0001F067FA0028A7
:1031000004D12000290001F0D1F970BD064B002246
:103110002000290000F038FE01F0C8F980231B06CA
:103120009C466044F1E7C0460000E041F0B55746D8
:103130004E464546DE46E0B504000D0092469946EF
:1031400083B08B4230D82DD04946504601F066FA04
:1031500029000600200001F061FA331A9846203B4E
:103160009B4633D45A465346934042461F0053462B
:1031700093401E00AF423AD8AF4200D178E05B46A0
:10318000A41BBD41002B00DA75E000220023009251
:10319000019301235A4693400193012342469340F1
:1031A000009328E08242CFD90022002300920193AD
:1031B0000C9B002B01D01C605D600098019903B04E
:1031C000F0BCBB46B246A946A046F0BD424620230D
:1031D0009B1A5246DA40414613004A468A4017007D
:1031E00042461F43534693401E00AF42C4D90022BB
:1031F0000023009201934346002BD9D0FB077208AD
:103200001A4346467B080EE0AB4201D1A2420CD8DD
:10321000A41A9D41012024196D410021013E24186A
:103220004D41002E06D0AB42EED9013E24196D412E
:10323000002EF8D1009801995B4600196941002BD6
:1032400024DB2B005A464446D3402A00E2401C00AF
:103250005B461500002B2ADB26009E40330026002B
:103260004746BE403200801A9941009001919FE785
:10327000A342BCD883E74246202300219B1A0022A8
:10328000009101920122DA40019286E74246202312
:103290009B1A2A0046469A402300F34044461343B3
:1032A0002A00E2401C005B461500002BD4DA42469F
:1032B0002F002023260097409B1ADE403B0033431B
:1032C000CDE7C046F0B557464E464546DE46E0B52A
:1032D000814605000C03480092461F0085B0240B70
:1032E000400DCE0F002800D156E1D44B984200D1BA
:1032F00072E16B0FE4001C4380231B0423439846B8
:10330000CF4BED009B4600239946834400933C033A
:103310007B005046240B5B0DFF0F002B00D11FE1FB
:10332000C64A934200D162E1C549420F8C46E4008F
:1033300059461443802263441204CB1A14439B461B
:10334000C200002033007B409A464B460F2B27D803
:10335000BC499B00CB589F46B246009B022B16D01F
:10336000032B00D18EE2012B00D0D9E000230024F2
:10337000002552461B052343D2071343280019009A
:1033800005B0F0BCBB46B246A946A046F0BD00243D
:103390000025AA4BEDE7BA46A04615000090DCE7F1
:1033A000444500D2C7E100D1C2E101235B429C4603
:1033B0002E0040460025E3442302140E1C431B0C40
:1033C000994623041F0C1202494600920197FFF709
:1033D00051FD02007A430B04310C804619438A42A6
:1033E00007D901235B429C460919E0448C4200D86E
:1033F00007E2881A4946FFF73DFD09048C4631046F
:103400006646019A090C4243030031438A4204D9BB
:103410000919013B8C4200D8EDE1881A424612049A
:103420001A4390464146009B0E041B0C1F0002935A
:10343000009B360C1B04190C0B007343120C7E43CB
:10344000039151437A431F0CBC4676186644B1423F
:1034500003D9802149028C466244310C8A18310418
:103460001E04360C8E19904202D312D1B54210D2EE
:103470004346591E009B9C4665441F009D429B414C
:103480005B421B19C018844200D2A0E100D19BE12D
:103490008846AE1BB542AD41801A6D42401B844246
:1034A00000D1D5E14946FFF7E5FC019A0B04424300
:1034B000310C050019438A4200D96CE1881A49464B
:1034C000FFF7D8FC019A360442430904360C030086
:1034D0000E43B24200D953E10398B61A02002D04FC
:1034E0001D43029F2B041B0C5A437B439C46290C13
:1034F0004843130C844463447943984203D98020A1
:10350000400284466144180C12041B04120C41183A
:103510009B188E4200D2FFE000D1FAE001231D4348
:10352000494A5A44002A00DCAAE06B0700D03DE17A
:10353000ED084346DB0106D54246444B1A4090460F
:103540008022D2005A44424B9A4200DD1FE7434694
:103550005B071D43434652055C02240B530D08E7ED
:103560005246224300D17BE0002C00D1FAE020003B
:1035700001F036F802000B3A1D2301009B1A524657
:103580000839DA408C40144352468A40314B584443
:103590009B4683440020D5E64B462343984644D0BF
:1035A000002C00D1CEE0200001F01AF8010002004A
:1035B0000B391D235B1A49461000D9400838844056
:1035C0000B004D462343984685402348831A9B466B
:1035D0000023994600939AE64B46234398461DD113
:1035E00008239946063B0025834600938FE6524602
:1035F000224309D1022349461943184B89469C4668
:1036000000240220E3449DE603234A461A43134B59
:1036100091469C4652460320E34493E60C23994688
:10362000093BA0468346009371E604239946002394
:103630009B4601330025009369E6C046FF07000062
:1036400001FCFFFF30550010FF030000FFFFFFFEED
:10365000FE070000F30300000DFCFFFF01F8FFFF71
:103660004946012319438946002401206AE60023C4
:1036700080249A4600258A4B24037AE601256D4270
:1036800001239B1A382B00DD70E61F2B00DCBFE006
:103690001F2149428A1A4146D1400A00202B04D0FA
:1036A0004146804B5B4499400D436B1E9D4107236F
:1036B0002A431D0000241540134200D1D4E00F21FD
:1036C00000231140042900D1CBE0111D9142924109
:1036D00052429B180A00190200D4C2E001230024C0
:1036E000002546E6802341461B03194208D01C42B0
:1036F00006D11C432403BA461500694B240B38E657
:103700008024434624031C432403B246644B240B09
:103710002FE6002B00D103E7A619681EA64200D2AF
:103720008DE08E4200D2A3E000D1B3E00500F5E6C3
:10373000AA4200D939E64346DE0758086B081E4303
:10374000ED0739E6484600F04BFF01000200153155
:1037500020321C2900DC2CE74B460838834000252A
:10376000984632E700F03CFF03001A001532203083
:103770001C2A00DC00E75446083B00229C4005E779
:103780003619013BB44200D9A6E6B24200D8A3E6FE
:10379000831E3619A0E60919013D8C4200D98DE639
:1037A0008A4200D88AE6851E091987E60F232B4036
:1037B000042B00D1BCE605235B42AB429B410435A0
:1037C0005B42ED089844B4E6AF4200D960E682421D
:1037D00004D800D05CE6AE4200D859E602235B4232
:1037E0009C46009BE0449C4665449D429B415B4255
:1037F0001B19C0184DE68A4200D80EE6831E09192F
:103800000BE68A4200D8F4E5831E98460919F0E5D4
:103810002549280059448D4042468A40691E8D4101
:103820004146D840D94002432A430B00510700D1FA
:1038300051E70F211140042900D046E74BE705006E
:103840008E4200D06AE6009A934200D066E667E6B0
:10385000164A5A44002A00DC10E701230025984448
:1038600067E65D075B021C0BD2080023154380E569
:103870000098023D42008242BF417F423C19361906
:103880000092DDE78024434624031C432403044BB9
:10389000240B6EE5009A9A42EAD30500D3E7C046AE
:1038A000FF0700003E0400001E040000FF030000AC
:1038B000F0B557464E464546DE46E0B598460C0301
:1038C0004B000600924687B0240B5B0DCF0F002BF8
:1038D00000D15CE1D94A934200D175E1420FE40086
:1038E0001443802212041443D54AC500944663440D
:1038F0000093002399469B46434642461E03D20F3F
:103900005B0050469046360B5B0D00D120E1CB4A60
:10391000934200D162E1CA49420F8C460099634448
:10392000F6008C46164380229C44120463461643DC
:10393000C200002000930099434601318C4649465D
:103940007B4001930F2926D8BE4B890059588F46DA
:10395000434601933400150083465B46022B16D084
:10396000032B00D103E2012B00D0CDE00022002484
:103970000025019B12052243DB071A432800110092
:1039800007B0F0BCBB46B246A946A046F0BD002435
:103990000025AA4AEDE7280C2D042D0C2B00110C54
:1039A0001204120C5343984613002F0043439946C8
:1039B0004F434F44BB4647460B003F0CBA46434378
:1039C000DA440293D14504D980277F02B9464B449B
:1039D000029353461B0C9B4653461F0443461B044D
:1039E0001B0C98463B0043440493330C3604360CBE
:1039F0009846330043439946434643432F009A4633
:103A0000434677435D43380C4D444519A94503D9D6
:103A100080235B029946CA443F04280C3F0C2D04C6
:103A2000ED19270C2404240C0300200050437A4392
:103A300091463A0053440593030C9A464A43614326
:103A400049445144AB44894503D980235B029946DC
:103A50004A4400040B0C000C090409182000994684
:103A6000434670435C437E435F43030C9846A4196E
:103A700044444A440397A64204D980235B029846F3
:103A8000474403972304029E9A46059B5E4498464A
:103A9000AE42AD4176188E4289410004000C50447C
:103AA00040446D424719B846934649428946C3444B
:103AB000D94498428041A845AD41934592418945FA
:103AC00089416D4240422843240C524249420A43F4
:103AD000039B00198018C7184B46DC0D049B750228
:103AE0001D436A1E95414B46F60D7F0235435A022F
:103AF0003C431543FB0100D41CE101216A080D4041
:103B00001543E207154364084F496144002900DC6E
:103B1000B0E06B0709D00F222A40042A05D02A1DE5
:103B2000AA42AD416D4264191500E30104D580211C
:103B3000464AC90014406144454A914200DD26E7E7
:103B40006207ED08640249051543240B4A0D10E78E
:103B50005246324300D17FE0002E00D1DCE030003D
:103B600000F03EFD02000B3A1D2301009B1A524655
:103B70000839DA408E40164352468A40009B354948
:103B8000181A03008C46634400200093D3E62500F6
:103B900005434AD0002C00D1B0E0200000F020FD09
:103BA000010002000B391D2310005B1A31003500A3
:103BB00008388440D94085400C432648831A009336
:103BC000002399469B4697E60500254326D1082207
:103BD00000930223002491469B468DE65246009BAB
:103BE000324310D1154900268C4663444946009360
:103BF00002231943894602209DE65B460197022B6A
:103C000000D0ADE6C3E60D4A0320944663444A461D
:103C1000009303231A43914652468CE60C220093EC
:103C20000323050091469B4666E60423994600233C
:103C30000093013300249B465EE6C046FF07000068
:103C400001FCFFFF70550010FF030000FFFFFFFEA7
:103C5000FE0700000DFCFFFF49460123194389467A
:103C60000026012067E6002380240025434A0193B3
:103C700024037EE60120401A382800DD76E61F285E
:103C80005BDD1F2223005242511ACB40190020282D
:103C900003D03B4A6244944025436A1E95412A0062
:103CA0000A4307210D000024154011425BD00F216B
:103CB00000241140042953D0111D914292415242D7
:103CC000A4180A0023024BD501220024002550E647
:103CD00080231B031C4209D01E4207D133431C031F
:103CE00043461500240B254A019342E68022120325
:103CF00014432403214A240B01973AE600F070FC98
:103D000001000200153120321C2900DC4BE7340091
:103D100008380025844050E700F062FC03001A00D8
:103D2000153220301C2A00DC1EE75646083B0022D4
:103D30009E4023E7009B9C46E6E612492200614430
:103D40002E008D408A40C640691E8D4132432A4371
:103D5000C4405307B6D00F2111400429ACD1B1E7BC
:103D600065076402240BD2081543002201E6802275
:103D7000120314432403014A240BFAE5FF07000051
:103D80003E0400001E040000F8B557464E46454666
:103D9000DE46E0B51E0017004A000B03520D5B0A19
:103DA0009046420F1A43CD0FCD4C3103C3009446C9
:103DB00070007A0F490AFF009A46B946400DF60F87
:103DC0001143A04200D1B1E001225640B346B542B2
:103DD00000D188E04246121A002A00DCAEE000283A
:103DE00000D1C1E0BE48804500D151E180200004EF
:103DF0000143382A00DD7BE11F2A00DDEEE12020AF
:103E00003E00801A0C00D640D14087406246844074
:103E1000521A781E8741944634432743DC1BA34241
:103E20009B4162465B42D31A99464B461B0200D423
:103E300018E14B465802430A99464B46002B00D1E5
:103E400037E1484600F0CCFB01000839202322006E
:103E500048465B1ADA4088408C4043461043884508
:103E600000DD36E1C91A4B1C1F2B00DDEAE02022E1
:103E70002600D21A01009440DE40D8400023914031
:103E8000621E94418146984631430C43630709D032
:103E90000F232340042B05D0231DA342A4416442D9
:103EA000A1441C004B461B0200D4DEE041468C4B73
:103EB0000131994200D1E7E04B468A48E4080340CB
:103EC000180049055B07400223434A0D040B120505
:103ED000ED0722432A4318001100F0BCBB46B2464E
:103EE000A946A046F8BD4246121A002A52DD002813
:103EF00000D19CE0A04500D1CAE08020000401432D
:103F0000382A00DD49E11F2A00DC97E110000E008D
:103F10002038C640202A04D04020821A91400F4306
:103F2000B9464C46621E944134433AE10A003A4392
:103F300028D0B346B5422BD06B4A4244002A5DD00C
:103F400042464446821A002C00D0F5E065461D43E7
:103F500000D19CE1551E012A00D1FBE1604CA24238
:103F600000D1BDE12A00F0E00800384300D1C3E0F1
:103F7000501E012A00D1A8E1594CA24200D187E08D
:103F8000020036E701225640B346B54200D021E791
:103F9000554A4244002A00D1B5E042464446821ABE
:103FA000002C00D138E14E4EB04200D1DEE1802637
:103FB000644636043443A446382A00DD96E11F2ABD
:103FC00000DD24E22026B41AA24664465646B440D8
:103FD000A1461C004E46D440264334005646B3400A
:103FE0005E1EB3411C436346D340C918E419BC426A
:103FF000BF417F42B94680468944D8E040463B4CA9
:104000000130204200D0B4E04046002800D044E116
:104010006046184300D190E10800384300D0AAE17F
:104020006146DB0849070B436146CC0827E00800DE
:10403000384361D0501E012A00D139E1A24227D075
:1040400002005DE702001F39CA401100202B03D097
:104050004022D31A98400443631E9C410023994692
:1040600098460C43630700D012E74B464A46E408E3
:104070005B072343D408424619498A420ED02403E1
:104080005205240B520D22E70A00002400231EE7EC
:10409000DB086246520713436246D4081A002243E3
:1040A00000D1FCE180221203144324030C4A240BA8
:1040B0000DE7200000F094FA010018311F2900DC00
:1040C000C4E608388440434620000024884500DCCC
:1040D000C8E6044A5B1A104098468146D6E6C046B8
:1040E000FF070000FFFF7FFF01F8FFFFFE07000052
:1040F0000F437A1E974191E66146DB0849070B435F
:104100006146CC08B8E74046D34C0130204200D08D
:10411000A2E04046002800D001E16046184300D1EB
:104120005EE10800384300D05FE16146DB084907E3
:104130000B436146CC08A2E7C84DA84200D1CFE0AE
:10414000802564462D042C43A446382A56DC1F2AB9
:1041500000DDD1E020251E00AD1A6446AB40AC4026
:10416000D6405D1EAB41344323436446D440091B13
:1041700049E06046DC1B461AA3428041404281462A
:1041800030004E46801B8146000276D44B462343C6
:1041900000D052E60024002571E739430C00621E6E
:1041A0009441E4189C429B415B42634499464B46D0
:1041B0001B0200D456E701239C46A84BE0449845D7
:1041C00038D04B46A648012203401800630814402B
:1041D0001C43C3071C434308994657E610000E00D2
:1041E0002038C640202A04D04020821A91400F4334
:1041F000B9464F467A1E974137430FE662461A4347
:1042000013005A1E9341FC1AA742BF417F42CB1BA9
:1042100099465D46804608E666461E4300D1BEE0EC
:10422000561E012A00D109E18C4CA24200D119E1AD
:104230003200C1E642460024002348E620200C005C
:10424000801A3E0087408440D640781E8741D14086
:1042500034433C438C44A4E7804A904200D1E9E0D7
:10426000DF199F429B4161445B42C918CC077F081C
:104270004B08994680463C43F4E6FC1AA742BF41EE
:1042800063467F42C91ACB1B99465D46D5E5FF08B8
:104290004B075D463B43CC08EEE662461A4300D02E
:1042A00082E00B003B431BD1802400252403F9E668
:1042B000DC199C429B41614489465B4299444B46D0
:1042C0001B0244D401239846CCE6DC1B6246A34281
:1042D0009B41511A5B42CB1A994601239846A4E5AB
:1042E000FF084B075D463B43CC08D7E662461A43BE
:1042F0001400631E9C4179E615006446203DEC40A5
:10430000A046202A05D040256446AA1A944023439B
:104310009A465446631E9C414346234373E76246D4
:104320001A4323D00A003A4300D0A0E06246DB08DB
:10433000520713436246D408B0E60B003B4300D15A
:1043400028E7FF084B075D463B43CC0897E602236E
:10435000984636E7FC1AA742BF4163467F42C91A16
:10436000CB1B994601235D4698465EE54B07FF0847
:104370003B43CC0892E6DC1B6046A342B641401AA0
:104380007642801B8146000260D5FC1AA742BF41DD
:1043900063467F42C91ACB1B99465D4676E5FF0806
:1043A0004B073B43CC0867E60A00DB083A4300D1E1
:1043B0006FE66246520713436246D4088022120316
:1043C000144207D0C808104204D15D460400FB081F
:1043D00049070B435A0FDB00DB08520713435DE626
:1043E0004B07FF083B43CC0849E6DC199C429B4144
:1043F000614489465B4299444B461B0200D431E636
:104400004A46174B1A400123914698462AE6160061
:104410006446203EF440A046202A05D0402664464B
:10442000B21A944023439A465446631E9C41434625
:104430001C43DBE502000024002348E5DC19BC42F4
:10444000BF41614489467F42B94438E74B46234324
:1044500000D19FE606E6C046FE070000FF07000009
:10446000FFFF7FFFFF084B073B43CC0816E6624681
:10447000DB08520713436246D40880221203144219
:1044800007D0C808104204D15D460400FB08490764
:104490000B435A0FDB005207DB081343FEE50023F2
:1044A000014A1C0013E5C046FF0700000A0030B5B2
:1044B000134C530009030500090B00205B0DD20FBC
:1044C000A34204DD0F48834202DD0F4BD01830BDFC
:1044D0008020400301430D48C01A1F2808DD0C4806
:1044E000C31AD9400B005842002AF0D11800EEE759
:1044F000084CC540A446634499400B002B43F2E7A7
:10450000FE0300001D040000FFFFFF7F33040000D6
:1045100013040000EDFBFFFF10B5041E10D000F0E7
:104520005FF80F4B1B1A0A2811DC0B222100121A0C
:10453000D14015300A035B058440120B5B0D01E08E
:10454000002300221B0513432000190010BD220088
:104550000B3882405B0512030024120B5B0DF1E760
:104560001E0400008446100062468C461900634613
:1045700000E0C0461FB500F005F9002801D4002175
:10458000C8421FBD10B500F055F84042013010BDC3
:1045900010B500F0F7F8002801DB002010BD012065
:1045A00010BDC04610B500F0EDF8002801DD002078
:1045B00010BD012010BDC04610B500F07DF80028E8
:1045C00001DC002010BD012010BDC04610B500F078
:1045D00073F8002801DA002010BD012010BDC0468C
:1045E0001C2101231B04984201D3000C10391B0A23
:1045F000984201D3000A08391B09984201D30009E7
:10460000043902A2105C40187047C046040302023D
:1046100001010101000000000000000010B50029A8
:1046200003D1FFF7DDFF203002E00800FFF7D8FFDD
:1046300010BDC046F0B54E464546DE46574690464C
:10464000E0B517001A03120B0500844619480E0343
:104650004C0091465A00DB0F9B46360B640DC90F88
:10466000520D844219D0824210D0012094420ED1C2
:104670004E450CD10120C44509D1594517D0002C15
:1046800005D130002843431E984100E00120F0BCD2
:10469000BB46B246A946A046F0BD330001202B43DD
:1046A000F5D1A242F3D14B463B43F0D1E2E70020E3
:1046B000EDE7C046FF070000F0B54746CE460400D0
:1046C000180016001B031B0B2D4D4A00994680B5A0
:1046D00043000F03A446B0463F0B520DC90F5B0DBC
:1046E000C00FAA4221D0AB4213D0002A22D13C43B2
:1046F000002B02D14D462E4322D0002C10D08142F7
:1047000022D00220013908400138C0BCB946B04669
:10471000F0BD4D462E4329D1002AF0D13C43EED1C5
:104720000028F2D101204042EFE73D0025431DD192
:104730009342EED0002BE2D14C462643DFD1E0E796
:104740000020002CE1D0DCE79A420ADCE8DB4F4590
:10475000D7D80ED000204F45D7D20029E2D008008C
:10476000D3E74342584140000138CEE7022040429F
:10477000CBE7C445C5D80020C445C6D2EDE7C04646
:10478000FF070000F0B54746CE46040018001600AB
:104790001B031B0B2C4D4A00994680B543000F03A9
:1047A000A446B0463F0B520DC90F5B0DC00FAA4285
:1047B0000DD0AB4210D0002A27D13C43002B11D1A1
:1047C0004D462E430ED10020002C15D00EE03D00AA
:1047D000254310D1934218D14D462E430BD1002AC8
:1047E00002D13C43002C0BD0814214D0022001396D
:1047F0000840013800E00220C0BCB946B046F0BD18
:104800000028F9D101204042F6E7002BECD14C46BC
:104810002643E9D1EAE79A4204DD43425841400089
:104820000138E9E79A42EBDB4F45DFD806D000209C
:104830004F45E1D20029E5D00800DDE7C445D5D8D1
:104840000020C445D8D2F5E7FF07000030B50024AA
:104850000139A24201D1002005E0035D01340D5D64
:10486000AB42F6D0581B30BD002310B59A4200D1A0
:1048700010BDCC5CC4540133F8E7030082189342A6
:1048800000D1704719700133F9E70000F8B5C04650
:10489000F8BC08BC9E467047F8B5C046F8BC08BCDA
:1048A0009E4670470000000001B40248844601BCE7
:1048B000604700BFDF02000801B40248844601BC23
:1048C000604700BF090400080000214000002540A7
:1048D000000001400000344000002440000031404E
:1048E0000000324000001F41000023400000114042
:1048F00000001D411010101010101010101010802A
:1049000019005500F000050105013B04101C0101D0
:104910000FC000000004000001010101011D3A5711
:104920007896000000000008200010120800000027
:10493000001F00000010000F002000023F06080EBC
:1049400000080009000A000B24282C303400000065
:104950001000000090000000880000000800000027
:104960008000000004F0000000F0000040020000A1
:104970002005A000D00100018001A00140019001AC
:10498000B001200010000000000000000000000046
:104990000000000066666666000000000000FFFF81
:1049A000000000001C1C1C1C1C1C1C1C0000000027
:1049B000000000000000000066E6EE660000000057
:1049C0000000FFFF000000001C1A1A1A1A1A00004B
:1049D00000000000000000000000000066E66666BF
:1049E000000000000000FFFF000000001A1A001C79
:1049F0000000000007001800010000000300000094
:104A0000010000000100000000000000050360003C
:104A10000400000001000000000000000100000090
:104A200006046000080000009C070008752B0010B9
:104A30007C010000310100000B0B01120C00000092
:104A4000FF03000080ABCDABCD80409C1B04041B5A
:104A5000FFFFFFFF0000000004100800070704002C
:104A6000F216FBE0FBE01F60427EF56D720196BE20
:104A70002090000010502604060037D7F401FA00F9
:104A8000960064004B0032001E001400030405066B
:104A9000020D11006DE60010D1E50010D7EC0010FA
:104AA00035E70010E7E7001083EC00109BEC0010E6
:104AB0006DED001061E8001011E9001045EB0010E9
:104AC00073EB0010BBED001071EC00104FED001007
:104AD0004FED00104FED001019EC0010C1EB00106D
:104AE00005EC00106525011071250110DD35011060
:104AF000C5360110D136011031E700106BE6001009
:104B00002BED0010E5E700101FE8001093EC0010FB
:104B1000B5EC0010B9ED00100DE90010ADE9001082
:104B20005FEB001099EB001027EE00107BEC0010FB
:104B3000B9ED0010B9ED0010B9ED001069EC0010EE
:104B4000B9ED0010B9ED0010B9ED0010B9ED00108D
:104B5000B9ED0010B9ED0010B9ED00100C0008001F
:104B6000020017000D000100010002000900090009
:104B700001000100060002000900180018000300EF
:104B80000100010009000900030003000500000006
:104B9000830501108B0501108705011081050110A7
:104BA0005F0501105B050110790501107705011003
:104BB00053050110570501108F0501107B050110E9
:104BC00075050110930501109305011051050110A1
:104BD0007F050110C11C011075200110391E011044
:104BE000E51B0110B90E0110650B011051160110E3
:104BF00095110110C506011029070110A52101100A
:104C0000051A01102D110110E50A0110DD15011022
:104C100021610010B51A011051220110F525011073
:104C200061270110512801102D2401109D2201102F
:104C30007D2501107D230110BF230110CF2301101A
:104C4000D1230110D52301104FED0010C123011015
:104C5000CB230110C9230110393A0110C1330110CF
:104C60008139011031390110F1390110DD3601109F
:104C7000E9350110813601103537011099CA00104D
:104C8000CD390110E5330110D9330110DF330110A4
:104C9000DD330110E3330110DB3301104FED001061
:104CA0004FED00104FED0010D1B80010E1330110AE
:104CB000D54D0110B74D0110B74D0110B74D011082
:104CC000F14D0110E58D0110B74D0110D58D01108A
:104CD000ED8D0110DD8D0110775201106F52011022
:104CE000D9510110D1510110C74D0110AF4D011024
:104CF000A54D0110CB4D0110C9510110F951011002
:104D0000BF4D0110F151011051520110B74D01106A
:104D100001520110E9510110E1510110B74D01108C
:104D2000F94D0110014E0110094E0110BB4D01104B
:104D3000BB4D0110D54D0110B74D0110B74D0110FD
:104D4000B74D0110F14D0110E58D0110B74D011067
:104D5000D58D0110ED8D0110DD8D01107752011000
:104D60006F520110D9510110D1510110C74D0110DE
:104D7000AF4D0110A54D0110CB4D0110C9510110CF
:104D8000F9510110BF4D0110F151011051520110A4
:104D9000B74D011001520110E9510110E15101100C
:104DA000B74D0110F94D0110014E0110094E0110CF
:104DB000BB4D0110BB4D01108176011075760110BD
:104DC0008D760110BB4D0110BB4D01104D730110CC
:104DD00089730110597301107D73011071730110F3
:104DE0006573011095730110A173011069760110AC
:104DF000D1780110D5780110E1780110B97801104F
:104E0000C5780110BB4D0110BB4D0110BB4D011009
:104E1000BB4D0110BB4D0110BB4D0110BB4D01102E
:104E2000BB4D0110BB4D0110BB4D0110BB4D01101E
:104E3000BB4D0110BB4D0110BB4D0110BB4D01100E
:104E4000BB4D0110BB4D0110BB4D0110BB4D0110FE
:104E5000BB4D0110BB4D0110BB4D0110B74D0110F2
:104E6000BB4D0110BB4D0110AD7301100B6A011059
:104E7000B9680110B9680110B96801103D6A0110E4
:104E8000CD690110B9680110B16901107D6A011086
:104E9000C7690110576A01104D6A01103B68011083
:104EA000B9680110B9680110B9680110BF67011035
:104EB0009B690110E56701101D6A0110436901102B
:104EC00053690110CD680110B9680110936A01108F
:104ED00009690110FB680110B968011087690110A8
:104EE000CB6A0110B9680110B9680110B9680110E6
:104EF00011760110057601101D760110516901101F
:104F0000EB68011099720110D5720110A5720110A1
:104F1000C9720110BD720110B1720110E17201106D
:104F2000ED720110F97501100D780110197801105A
:104F300025780110F577011001780110B96801108A
:104F4000B9680110B9680110B9680110B968011099
:104F5000B9680110B9680110B9680110B968011089
:104F6000B9680110B9680110B9680110B968011079
:104F7000B9680110B9680110B9680110B968011069
:104F8000B9680110B9680110B9680110B968011059
:104F9000B9680110B9680110B9680110B968011049
:104FA000F97201103B6D0110696C0110696C011000
:104FB000696C01105F6D0110E56C0110696C0110E6
:104FC0002D6D01102D6D0110D76C0110756D011044
:104FD000636D0110E56B0110E16B0110C56C0110F0
:104FE000796B01106B6B01106B6B01107D6B011005
:104FF0003F6D0110996C0110AD6C01106D6C0110CA
:10500000696C0110A96D0110856C0110716C0110A3
:10501000696C0110C96C0110C56D0110C16D0110E2
:10502000696C0110696C0110697501105D750110E2
:1050300075750110ED6D0110676B0110E1710110C4
:10504000E9710110F571011001720110E97101108F
:10505000E97101100D7201101972011051750110E2
:1050600015770110217701102D770110FD760110C1
:1050700009770110696C0110696C0110696C0110ED
:10508000696C0110696C0110696C0110696C011088
:10509000696C0110696C0110696C0110696C011078
:1050A000696C0110696C0110696C0110696C011068
:1050B000696C0110696C0110696C0110696C011058
:1050C000696C0110696C0110696C0110696C011048
:1050D000696C0110696C0110257201100800000054
:1050E000060F0020200107021900000007070E0527
:1050F000020220001C1202000103000E030600043D
:10510000004027070000070701020002030703040D
:10511000000000000000000000000000000000008F
:105120000000000000000000000800000B6A0110F1
:10513000B9680110B9680110B96801103D6A011021
:10514000CD690110B9680110B16901107D6A0110C3
:10515000C7690110576A01104D6A01103B680110C0
:10516000B9680110B9680110B9680110BF67011072
:105170009B690110E56701101D6A01104369011068
:1051800053690110CD680110B9680110936A0110CC
:1051900009690110FB680110B968011087690110E5
:1051A000CB6A0110B9680110B9680110B968011023
:1051B0003B6D0110696C0110696C0110696C011084
:1051C0005F6D0110E56C0110696C01102D6D01100F
:1051D0002D6D0110D76C0110756D0110636D0110FC
:1051E000E56B0110E16B0110C56C0110796B0110CA
:1051F0006B6B01106B6B01107D6B01103F6D01102B
:10520000996C0110AD6C01106D6C0110696C01108E
:10521000A96D0110856C0110716C0110696C011091
:10522000C96C0110C56D0110C16D0110696C0110D0
:10523000696C011008000000060F00202001070221
:105240001900000007070E05020220001C120200D0
:105250000103000E032000800000C00000000004D5
:105260000000002822000000000000040000F7FFFA
:10527000FF7F000000300000000000800000000000
:10528000000000000000000000000000000000001E
:105290000000000000000000797001103172011060
:1052A00099710110D97001103F720110C171011084
:1052B000A97001104D720110A5710110D770011075
:1052C00051720110BD710110C17001103F720110C7
:1052D000B5710110AB7001103F720110AD7101107A
:1052E000EF7001105D720110C9710110F5700110AD
:1052F0006D720110D1710110B9680110696C011053
:10530000BB4D0110B9680110696C0110BB4D011053
:10531000B9680110696C0110BB4D0110B96801102A
:10532000696C0110BB4D0110B9680110696C011066
:10533000BB4D0110B9680110696C0110BB4D011023
:10534000B9680110696C0110BB4D0110B9680110FA
:10535000696C0110BB4D01100371011085720110C1
:10536000D9710110B9680110696C0110BB4D0110B1
:10537000B9680110696C0110BB4D0110B9680110CA
:10538000696C0110BB4D0110B9680110696C011006
:10539000BB4D0110B9680110696C0110BB4D0110C3
:1053A000BD7301109975011041750110BB73011097
:1053B0008D75011039750110E3730110D17501105D
:1053C00049750110B9730110817501103175011013
:1053D000B9680110696C0110BB4D0110B96801106A
:1053E000696C0110BB4D0110B9680110696C0110A6
:1053F000BB4D0110B9680110696C0110BB4D011063
:10540000B9680110696C0110BB4D0110B97601102B
:105410007577011000000000C77601108977011030
:105420003D380110D5760110B37701106D380110A9
:105430009976011039770110D1340110A776011047
:1054400057770110ED3401103030303142383030B0
:105450003031303230333034303530363037303828
:1054600030393041304230433044304530463130BD
:105470003131313231333134313531363137313800
:105480003139314131423143314431453146323095
:1054900032313232323332343235323632373238D8
:1054A000323932413242324332443245324633306D
:1054B00033313332333333343335333633373338B0
:1054C000333933413342334333443345414200009F
:1054D00026002B00300036003C0043004B005500F6
:1054E0005F006A00770086009600A800BD00D40027
:1054F000EE000B012B014F017801A601DA01130226
:1055000054029D02EE024A03B1032404A5043605A9
:10551000D9058F065C0742084409650AAA0B160DD7
:10552000AF0E79107C12BD1445171C1A4B1DDE20DE
:10553000A03300108E3300106C330010963300102F
:105540006C3300106E3600106C3300109633001070
:105550008E3300108E3300106E360010963300101C
:10556000583300105833001058330010E436001040
:105570009639001054390010543900105039001079
:105580005A3900105A390010663C0010503900108A
:105590005A390010663C00105A390010503900107A
:1055A000FA3B0010FA3B0010FA3B0010D03C001010
:1055B00000000000FEB507460025684605807868B3
:1055C0003C1D34492E46002807D06268002A06D0C8
:1055D000800702D1207A800701D00D4658E0FAF703
:1055E000C3FFFBF793F90190FBF7EAF9FBF77EF9AC
:1055F0000198FBF78FF9FAF7CDFF00F03DF900288D
:105600003ED1403738790006C00F00F0B5F90546A5
:105610000004000C34D12049084600F063FF000468
:10562000000C2DD12289A17A20681C4C002806D0BC
:105630002060A280E68021810021FFF71EF96846E4
:1056400001F002FE054616486B460079E2888000AC
:10565000001DC1B21B88A088D418A04206D3C01A6E
:10566000801A80B201F080FA044600E00D4C00F090
:10567000EDFD002C04D100F0C1FB0B48012181702D
:1056800000F008F9002D03D001F05CFC064806701C
:105690002846FEBD010016004D580010BC0700084A
:1056A0001A080008FFFF0000FD00000810B5094CB3
:1056B000A07801280AD06078012806D12078002837
:1056C00003D101F01AFC0020607010BD01F0CEF88B
:1056D00010BD0000FD00000810B5FBF7CDF8032851
:1056E00001D100F0A5FE00F021FA01F031FE00F03A
:1056F0002BFF02490020887010BD0000FD0000084B
:1057000000487047BC07000870B5044600208A07AF
:1057100003D08A07920F891A091D084B89B2DA88CB
:105720009E885518B54206D81D68AA182260DA88E6
:105730005118D98070BD024870BD0000BC07000838
:105740000300160000487047C807000810B501F0B4
:1057500013FD10BD10B501F019FD10BD10B501F01D
:105760001DFD10BD0749002809D0FF21913181801E
:1057700005210170002141700A2181700021084635
:10578000704700000100160010B5FFF78FFF10BD35
:1057900010B501F041FE10BD10B501F00FFD10BDB8
:1057A00038B50546002069460880002D09D02846F6
:1057B00001F020FE0446684601F03AFD002C02D0BC
:1057C00015E00C4838BD01F0F1FC2846FFF7F2FE69
:1057D00004000CD1284601F087FD040007D1FBF737
:1057E0004BF8032803D100F0E9FD00F037FE204616
:1057F00038BD00000100160038B504460020694697
:105800000880002C08D0A18D090A05D1617A1029E1
:1058100002D8E179102901D90A4838BDE0856946E6
:10582000204601F0ADFD05466946E08D0988401827
:10583000E085002D04D1322221460348FFF714F8F9
:10584000284638BD01001600C80700087047000050
:1058500010B5084900200978002909D006F034FA6B
:10586000044606F0F7F8201A80B281004018C008FC
:1058700010BD00000401000810B5FBF747F94822ED
:1058800002490348FEF7F0FF002010BD344A001023
:10589000FA07000810B5FBF787F8FBF717F810BDFB
:1058A00010B51A46034C01F0EBFA002800D0002492
:1058B000204610BDFFFF000010B501F0B1FB10BD88
:1058C00010B501F00FFB10BD010010B5044806D063
:1058D000044A01201070002008F088F9002010BD53
:1058E000FFFF00000401000870B50024034D2046AE
:1058F0002C7008F0A9F92C70204670BD0401000836
:1059000001480078704700000401000870B5591C78
:1059100089B24C080B4D64000021451906E0286847
:105920005054000A5618891C707089B2A142F6D3EF
:10593000D80705D0D0182038D15CC47FD454C177A3
:1059400070BD000000103C4030B50A4C0021001929
:105950005B1E07E054186478555C240225430560FB
:10596000891C89B29942F5DB994201D1515C0160F1
:1059700030BD000000103C40F1B590B0FF2000F0B9
:105980001BFA254FFF2078702448254900684018ED
:10599000406B3C1D400F01260025022801D0667097
:1059A00000E06570FAF768FF032819D026701A48DE
:1059B000801C4570FFF7C6FE0446162281180A3483
:1059C0006846FEF751FF2222214607A8FEF74CFF4A
:1059D00007A90EC9109813F04BFA040002D017E083
:1059E0002570E4E713F09AFA3870012000F0E4F92A
:1059F00013F09EFA68460576457606A813F03CFE3D
:105A00006846467606A813F037FE06A801F0B0FCFB
:105A1000204611B0F0BD000005010008000100089B
:105A200040F03D40F0B50021094D5B1E08E04419EF
:105A300024685718260A7E705454001D891C89B2A8
:105A40009942F4DB994202D1401900685054F0BDEC
:105A500000103C4070B500210A4E5B1E09E054184E
:105A600064782502545C2C4385192C60001D891C28
:105A700089B29942F3DB994202D1515C80190160ED
:105A800070BD000000103C40F0B50599091FCFB271
:105A900000217E1E0AE054186478555C24022543D8
:105AA000144C04192560001D891C89B2B142F2DB37
:105AB000FC0710D01C78515C24020E4A0C4381185C
:105AC0000C609C785D782102001D294384182160B8
:105AD000001DD9780BE059781A7809021143054A5C
